:020000040800F2
:100000000020002091090008390800083B0800087A
:1000100000000000000000000000000000000000E0
:100020000000000000000000000000003D08000883
:1000300000000000000000003F0800084108000820
:10004000E109000800000000E1090008E1090008DA
:10005000E109000849080008E1090008E109000871
:1000600000000000E1090008E1090008E1090008BA
:10007000E1090008E1090008E109000800000000AA
:10008000E10900080000000000000000E10900088C
:1000900000000000E1090008E1090008E10900088A
:1000A000E1090008E1090008E1090008E109000888
:0800B000E10900080000000056
:1000B80010B5064C2378002B07D1054B002B02D036
:1000C800044800E000BF0123237010BD5C0000203D
:1000D8000000000058600008044B10B5002B03D046
:1000E8000349044800E000BF10BDC04600000000FE
:1000F80060000020586000080023C25C0133002A19
:10010800FBD1581E7047000002B4714649084900E7
:10011800095C49008E4402BC7047C04603B471466E
:10012800490840004900095E49008E4403BC7047F5
:10013800002243088B4274D303098B425FD3030A1E
:100148008B4244D3030B8B4228D3030C8B420DD331
:10015800FF22090212BA030C8B4202D312120902BF
:1001680065D0030B8B4219D300E0090AC30B8B42FD
:1001780001D3CB03C01A5241830B8B4201D38B03AB
:10018800C01A5241430B8B4201D34B03C01A524150
:10019800030B8B4201D30B03C01A5241C30A8B4293
:1001A80001D3CB02C01A5241830A8B4201D38B027E
:1001B800C01A5241430A8B4201D34B02C01A524122
:1001C800030A8B4201D30B02C01A5241CDD2C30994
:1001D8008B4201D3CB01C01A524183098B4201D310
:1001E8008B01C01A524143098B4201D34B01C01AFB
:1001F800524103098B4201D30B01C01A5241C30873
:100208008B4201D3CB00C01A524183088B4201D3E1
:100218008B00C01A524143088B4201D34B00C01ACD
:100228005241411A00D20146524110467047FFE739
:1002380001B5002000F0F0F802BDC0460029F7D053
:1002480076E7704703460B437FD4002243088B426E
:1002580074D303098B425FD3030A8B4244D3030B45
:100268008B4228D3030C8B420DD3FF22090212BA0A
:10027800030C8B4202D31212090265D0030B8B4286
:1002880019D300E0090AC30B8B4201D3CB03C01A70
:100298005241830B8B4201D38B03C01A5241430B4B
:1002A8008B4201D34B03C01A5241030B8B4201D33B
:1002B8000B03C01A5241C30A8B4201D3CB02C01AA6
:1002C8005241830A8B4201D38B02C01A5241430A1E
:1002D8008B4201D34B02C01A5241030A8B4201D30D
:1002E8000B02C01A5241CDD2C3098B4201D3CB01B4
:1002F800C01A524183098B4201D38B01C01A524163
:1003080043098B4201D34B01C01A524103098B4266
:1003180001D30B01C01A5241C3088B4201D3CB0051
:10032800C01A524183088B4201D38B00C01A524134
:1003380043088B4201D34B00C01A5241411A00D2E4
:1003480001465241104670475DE0CA0F00D049424D
:10035800031000D34042534000229C4603098B42BD
:100368002DD3030A8B4212D3FC22890112BA030A45
:100378008B420CD3890192118B4208D389019211C7
:100388008B4204D389013AD0921100E08909C3094C
:100398008B4201D3CB01C01A524183098B4201D34E
:1003A8008B01C01A524143098B4201D34B01C01A39
:1003B800524103098B4201D30B01C01A5241C308B1
:1003C8008B4201D3CB00C01A524183088B4201D320
:1003D8008B00C01A5241D9D243088B4201D34B003B
:1003E800C01A5241411A00D20146634652415B107D
:1003F800104601D34042002B00D54942704763465E
:100408005B1000D3404201B5002000F005F802BDA2
:100418000029F8D016E770477047C04610B592B06B
:100428003422002105A805F0E9F91022002101A8CD
:1004380005F0E4F98020800000F0FEFC80235B00DA
:100448000893002309930E9308330F9380239B028C
:1004580010938023022440229B0505A805940A9244
:100468000C940D94119300F013FD002801D072B67E
:10047800FEE7072303900490210001A8019302944A
:1004880000F066FF002801D072B6FEE712B010BD7A
:10049800002370B5794A8AB00193019B934200DC2E
:1004A80083E0022500F0C2FAFFF7B8FF142200210A
:1004B80005A805F0A3F9042101268024704BE40166
:1004C8005A6B70482A435A635A6B2A400292029A1E
:1004D8005A6B0A435A635A6B0A400392039A5A6B3F
:1004E800210032435A635B6B002233400493049B20
:1004F80000F080FCA02000226349C00500F07AFCCF
:10050800059400245F4805A906960794089400F00E
:10051800B9FB80235B481B0205A905930694079441
:1005280000F0B0FBA020132305A9C005059306968B
:100538000794089400F0A6FBC42354489B0305A91C
:1005480006930595079500F09DFB8023A0201B01CD
:1005580005A9C005059306960794089500F092FB37
:100568008023A0205B010593112305A9C0050693EC
:100578000796089500F086FB22002100052000F070
:100588008DFA052000F0B4FA4148424B84600360BC
:100598003F234360404B0461C360846101F0DEFC8B
:1005A8000300A04205D072B6FEE7019B0133019318
:1005B80073E73A483A4A08250260822252004260AC
:1005C800E022D200C260802292008261E13AFF3AC2
:1005D800C261193A836003614361036243628362C3
:1005E800C2620363456301F047F9002801D072B67F
:1005F800FEE72C4C2C4BA060236096239B01636084
:100608000C23E0602061A061E06120626062A0626A
:100618002000636102F058FD011E01D072B6FEE7AA
:10062800200002F04BFF011E01D072B6FEE7200049
:1006380002F064FF002801D072B6FEE7200002F045
:100648001FFF031E01D072B6FEE71848184A8360E0
:100658000260E12252024260C36003614561836126
:10066800C36103624362836202F062FD002801D025
:1006780072B6FEE704F0D6FCFEE7C0460F2700007E
:100688000010024000080050131800000004005039
:10069800B401002000200040FFFF000000020020FD
:1006A8000030014020010020003801408C0000206B
:1006B8000044004072B6FEE701210A4B82B01A6C72
:1006C8000A431A641A6C0A4080210092009ADA6B75
:1006D80049050A43DA63DB6B0B400193019B02B0C7
:1006E8007047C0460010024010B5040088B01422BC
:1006F800002103A805F082F8104B22689A421AD10B
:1007080080210F4B49011A6CA0200A431A641A6C05
:10071800C0050A4001210192019A5A6B0A435A63A3
:100728005B6B0B400293029BE02303A90393DE3B20
:10073800049300F0A7FA08B010BDC046003001408D
:1007480000100240084B026882B09A4209D1802109
:10075800064B09021A6C0A431A641B6C0B4001937E
:10076800019B02B07047C0460020004000100240C4
:1007780010B5040090B01422002105A805F03EF839
:10078800182200210AA805F039F82368244A934260
:1007980027D101230AA80A9300F09CFE002801D063
:1007A800FFF788FF80211F4BC9011A6C1E480A43B6
:1007B8001A641A6C0A400192019A0222596B114379
:1007C80059635B6B05A913400293029BC0230593F1
:1007D8000023069207930893099300F053FA10B088
:1007E80010BD124A9342FAD180210E4B8902DA6B6E
:1007F800A0200A43DA63DA6BC0050A400392039A21
:100808000122596B114359635B6B05A9134004938B
:10081800049B042305930E33069307920992DCE7A1
:10082800003801400010024000040050004400401D
:10083800FEE7FEE77047704710B500F00BF910BDF2
:1008480010B5022000F0E4FA10BD00000122A0203B
:10085800294B70B55D6A1100C00500F0CBFA312D47
:1008680042D9264B264C9D4219D9E368182B0FD143
:100878006268A3689A4209D1A0200221C00500F04D
:10088800BFFA636823600023636063616368A360E1
:100898000023E3606360A3610133236124E02369DB
:1008A800002B21D0E1239B009D420DD9E368202B2A
:1008B80011D801229A40636813436360E368192BD7
:1008C80013D80133E3600FE0FA235B009D4202D2A4
:1008D800E368202BF2D9A369F53D0133A361C8234E
:1008E800FF3D5B009D42E9D870BD0023E360636073
:1008F800A3606361A361D0E70020004028230000C3
:1009080064020020064B10B55A6A322A01D9002227
:100918005A62A02000220121C00500F06BFA10BD28
:10092800002000400120704710B504F0D7FF1623BF
:1009380003600120404210BD10B504F0CFFF16231C
:100948000360FEE70B490C4A0300521A0B4910B525
:100958000868002801D10A4808600868C31893424B
:1009680006D904F0BBFF0C2303600120404210BDF0
:100978000B60FCE70004000000200020800200203B
:10098800F0030020704700000D488546FFF7FAFF86
:100998000C480D490D4A002302E0D458C4500433D2
:1009A800C4188C42F9D30A4A0A4C002301E01360A8
:1009B8000432A242FBD304F097FFFFF769FDFEE77C
:1009C80000200020000000205C0000206064000877
:1009D8005C000020F0030020FEE7000070B5104B1B
:1009E80005001978002901D1012070BDFA20800086
:1009F800FFF79EFB0B4C01002068FFF799FB00F006
:100A080083F8041EF0D1032DEED80200012029003E
:100A1800404200F043F8044B20001D60E5E7C04663
:100A28000400002000000020080000208023084A5D
:100A38005B00116810B50B4303201360FFF7CEFF6E
:100A4800041E03D1FFF738FE200010BD0124FBE788
:100A580000200240034A044B11681B785B1813609E
:100A68007047C0468402002004000020014B18682B
:100A78007047C0468402002070B50400FFF7F6FFF7
:100A88000500631C02D0044B1B78E418FFF7EEFF47
:100A9800401BA042FAD370BD0400002010B5FF240B
:100AA80003220B0021000240D20091409B01234009
:100AB800C943934000280ADBC0240B4A8008800001
:100AC8008018A40002590A401343035110BD0F2295
:100AD80010400838054A800880008018C269114013
:100AE8001943C161F2E7C04600E100E000ED00E013
:100AF800002805DB1F2318401E3B8340014A136072
:100B08007047C04600E100E08022431E52040120E5
:100B180093420DD2C021074A07485360036A090669
:100B28001B021B0A0B43036200200723906013601B
:100B38007047C04610E000E000ED00E0F0B5846CBE
:100B4800C56C6560046D002C02D0446D856D6560D0
:100B58001C24056C084E25401B3CAC4077683C4380
:100B68007460046863608368102B02D1A260E1603E
:100B7800F0BDA160E260FBE700000240F7B5451D4B
:100B88000193EE7F04000220012E33D00138E8776C
:100B9800A71DFE7FB4466346F6B200960026834240
:100BA80030D10130F8772568E6632868009B9843C0
:100BB8002860019B2000FFF7C1FF236BB3421AD0C6
:100BC8000E232A6813432B60636C1A68D20304D57A
:100BD8008022196852000A431A60236D002B04D042
:100BE8008022196852000A431A60012300202A68EB
:100BF80013432B60FEBD04222B6893432B602A68A5
:100C08000A23DFE78023E363EE77F3E7F0B50028F4
:100C180008D0841DE37F411D022B05D00423C36344
:100C28000023CB770120F0BD0E250268466C1368BF
:100C3800AB4313603368104D2B40336001231668B3
:100C48009E431660026C1B331A401B3B93400B4EAD
:100C580077683B437360C26C836C5A60036D002BEA
:100C680005D01A682A401A60436D826D5A600123C4
:100C78000020E377C877D6E7FFFEFFFF00000240B9
:100C8800C06B70470023F0B585B00A681400DC40DB
:100C980001D105B0F0BD012514009D402C40009401
:100CA8002A4200D191E04A685F00944603226446D4
:100CB80022400324BC40E4430194541E012C2ED846
:100CC8008668019C2640CC68BC40344384604468F4
:100CD8000126AC4325006446240934409C402C433B
:100CE8004460C568019C25408C68BC402C43C460A6
:100CF800022A16D107250F261D40AD00AE40DC089C
:100D0800A40004190294246A03962600039CA643AF
:100D180034000E69AE402643029C266201E0032A95
:100D2800DFD1BA400468019D25402A43C0240260EF
:100D38006246A402224248D0254A03259C08A40002
:100D4800A4180F221D40ED00AA40A027266EFF051B
:100D580096430022B8420CD01E4F0132B84208D048
:100D68001D4F0132B84204D01C4F0332B84200D1A3
:100D7800023AAA40674632432266154C009A266812
:100D8800009DD2433543FF0201D435001540674624
:100D980025606668009D3543BF0201D435001540C3
:100DA800674665600E4C009DE66F3543BF0301D46E
:100DB800350015406746E5670A4C009EE56F2E43EF
:100DC800FF0301D415402E00E66701335DE7C046F6
:100DD800001802400004005000080050000C0050A9
:100DE800081802400418024000690840431E984150
:100DF800C0B27047002A01D0816170478162FCE768
:100E0800426913000B401B0491430B4383617047F5
:100E180070B5084D0400EB68184202D0E860FFF78F
:100E280015FD2B69234203D020002C61FFF76AFDD2
:100E380070BDC0460018024010B5114C1149236816
:100E480002000B4003432360802300209B009A424A
:100E58000ED10D4B0D49186806235843FFF768F962
:100E68008022431CD200616908001040114200D161
:100E780010BD002B01D0013BF5E70320F8E7C04681
:100E880000700040FFF9FFFF0000002040420F0003
:100E9800F0B5040085B0002802D1012005B0F0BDEE
:100EA8000368DB0710D423689B075CD423681B07FF
:100EB80000D5C1E023685B0700D5F2E0E369002BA9
:100EC80000D079E10020E9E73822AF4DAB68134044
:100ED800EA68102B09D1D3439B0708D12B689B03E1
:100EE800E1D56368002BDED1D7E7082BF6D0802246
:100EF80063685202934211D12A6813432B60FFF7AB
:100F0800B5FD80270600BF022B683B42CBD1FFF717
:100F1800ADFD801B6428F7D90320BFE7A021C902D3
:100F28008B4208D180232968DB020B432B602B6896
:100F38001A432A60E3E72A6894490A402A602A6823
:100F480093490A402A60002BD9D1FFF78FFD8027EB
:100F58000600BF022B683B42A5D0FFF787FD801B28
:100F68006428F7D9D8E73822874DAB681340EA6878
:100F7800102B28D103210A40022A26D12A685205BB
:100F880003D5E268002A00D187E769686269814869
:100F9800120201400A436A60002B0CD12B687E4A7A
:100FA8007E491340226913432B602B687C4A9B04BB
:100FB8005B0FDA400A607B4B1868FFF70FFD0028CB
:100FC80000D173E769E7002BD8D0E368002B20D065
:100FD8002B68714A802713402269FF0013432B6056
:100FE80080232A685B0013432B60FFF73FFD060050
:100FF8002B683B4207D06A68636966491B020A404E
:1010080013436B6052E7FFF731FD801B0228EFD9CD
:1010180082E72B68644A802713402B60FFF726FD80
:101028000600FF002B683B4200D13FE7FFF71EFD9B
:10103800801B0228F6D96FE73822534DAB6813405E
:10104800182B08D12B6E9B0700D433E7A369002B1C
:1010580000D02FE721E7A2690123002A10D02A6EC9
:10106800022713432B66FFF701FD06002B6E3B4258
:1010780000D01FE7FFF7FAFC801B0228F6D94BE7E0
:101088002A6E02279A432A66FFF7F0FC06002B6EA9
:101098003B4200D10EE7FFF7E9FC801B0228F6D996
:1010A8003AE73822384DAB681340202B08D1EB6D56
:1010B8009B0700D402E7A368002B00D0FEE6ECE60D
:1010C80080220021EB6B52050091134208D1EB6B93
:1010D8001343EB63EB6B13400393039B01230093D0
:1010E8008027324E7F0033683B4215D0A368012B1E
:1010F80022D1EA6D1343EB65FFF7B8FC022706001F
:10110800EB6D3B4238D0009B012B00D0D6E6EB6B51
:10111800274A1340EB63D1E633683B433360FFF75C
:10112800A5FC019033683B42E0D1FFF79FFC019B8F
:10113800C01A0228F6D9EFE6EA6D052B05D1013B66
:101148001343EB65EA6D0123D4E701218A43EA657D
:10115800EA6D03318A43EA65002BCDD1FFF786FC9F
:1011680002270600EB6D3B42CDD0FFF77FFC114B09
:10117800801B9842F6D9CFE6FFF778FC0D4B801B11
:101188009842BDD9C8E6C04600100240FFFFFEFFE6
:10119800FFFFFBFFFF80FFFFFFC7FFFF00000020EE
:1011A8000024F40008000020FFFEFFFF007000404C
:1011B800FFFFFFEF8813000038213F4DAA680A405F
:1011C800102A51D03D4A022B38D12B688027134072
:1011D8002B60FFF74BFC0600BF042B683B4227D16E
:1011E800616A236AEA680B43354980260A4013433B
:1011F800E26AB6041343226B1343A26A1202134332
:10120800EB6080232A685B0413432B608023EA6821
:101218005B051343EB60FFF729FC04002B6833429E
:1012280000D04FE6FFF722FC001B0228F6D973E630
:10123800FFF71CFC801B0228CFD96DE62B6880269F
:1012480013402B60FFF712FC0400B6042B683342EE
:1012580004D1EB681B4A1340EB6033E6FFF706FC4A
:10126800001B0228F2D957E6012B00D115E603220C
:10127800E868216A02408A4200D00EE67022616A5C
:1012880002408A4200D008E6FE21A26AC901014054
:101298001202914200D000E6F822E16A920302406D
:1012A8008A4200D0F9E5236B400F4007C01A431E5D
:1012B8009841C0B2F2E5C04600100240FFFFFFFEB1
:1012C8008C80C11FFCFFFEEF382370B51D4CA2684F
:1012D8001A4205D123681C489B045B0FD84070BD97
:1012E800A2681A40082A27D0A2681A40102A17D1E3
:1012F800E368E168DB43E5684906490F6F322D0A68
:10130800013115409B0709D11048FEF711FFE1682C
:101318006843490F0131FEF70BFFE0E70A48F4E79D
:10132800A2681A40202A09D0A26800201340182B6E
:10133800D5D1FA20C001D2E70448D0E780200002C6
:10134800CDE7C046001002400024F40000127A00E5
:10135800F7B504000D00002801D10120FEBD0727C4
:101368004A4E33683B408B422AD3226893073BD4CA
:10137800D20748D4072733683B40AB420AD93368C1
:10138800BB432B433360FFF771FB019033683B404D
:10139800AB426BD123683E4D5B076FD4FFF794FFD8
:1013A800AB683C491B051B0F9B005B581F210B407A
:1013B800D840394A394B10601868FFF70FFBCDE762
:1013C8003368BB430B433360FFF750FB019033682E
:1013D8003B40AB42C9D0FFF749FB019BC01A304BD9
:1013E8009842F4D90320B9E72949530704D5E023E3
:1013F8008868DB0103438B608B682A480340A06838
:1014080003438B60B4E76268214F012A19D13B6816
:101418009B03A2D50721BB688B431343BB60FFF72F
:1014280025FB01903823BA681A406368DB009A42AA
:10143800A0D0FFF71BFB019BC01A194B9842F1D9AA
:10144800D0E7022A03D13B689B01E3D485E7002A51
:1014580003D13B685B05DDD47FE70223032A03D170
:10146800396E1942D6D178E7F96DFAE7FFF7FEFA37
:10147800019BC01A0A4B984288D9B3E7AB680A4A5D
:101488001340E2681343AB6088E7C046002002407F
:1014980000100240986100080000002008000020A9
:1014A80088130000FFF0FFFFFF8FFFFF064B07497F
:1014B8009B68074A5B045B0F9B005B581F21106801
:1014C8000B40D8407047C0460010024078610008C1
:1014D80000000020F0B50368050085B000209B03DC
:1014E80051D58022484C5205E36B0090134208D135
:1014F800E36B1343E363E36B13400393039B012301
:1015080000938027414E7F0033683B433360FFF7E9
:10151800ADFA019033683B4227D0E16DC022080044
:1015280092006B691040114217D098420CD0E36DBD
:10153800374AE16D1340802252020A43E265E26DA8
:1015480034490A40E265E365DB0706D5FFF78EFA02
:1015580002270600E36D3B424ED0E36D2C4A002083
:1015680013406A691343E36506E0FFF77FFA019BBE
:10157800C01A0228CED90320009B012B03D1E36BAC
:10158800254A1340E3632A68D30706D503241E4976
:101598004B6DA3436C6823434B65930606D51A49E4
:1015A8001E4C4B6D2340AC6823434B6553040FD549
:1015B80015492C694B6D9B009B0823434B65802381
:1015C800DB059C4204D18023CC685B022343CB60BB
:1015D80012050FD50C4A124C536DE96823400B4392
:1015E80053658023DB01994204D18023D1685B02D3
:1015F8000B43D36005B0F0BDFFF738FA094B801BE9
:101608009842A7D9B7E7C0460010024000700040D2
:10161800FFFCFFFFFFFFFEFFFFFFFFEFFFCFFFFF16
:10162800FF3FFFFF88130000F0B50E0085B01500DE
:101638000400FFF71BFAAD192D1AFFF717FA8027D8
:10164800254B01901B685B011B0D6B4303932268BC
:101658009368180038403B4232D0731CF8D0FFF72B
:1016680005FA019BC01AA8422CD3E02123685A68C6
:101678008A435A6082226168520091420CD18021CB
:10168800A26809028A4203D08021C9008A4203D194
:1016980040211A688A431A608021A26A89018A4215
:1016A80006D119680D480140196019680A431A6083
:1016B800230001225D331A70002303205C34237059
:1016C80005B0F0BD039B002B00D02B00039A1D0032
:1016D800013A0392BBE7C04600000020FFDFFFFF8E
:1016E800F0B51700002285B01D0002ABDA700400C7
:1016F8000E00FFF7BBF9ED192D1AFFF7B7F92322F2
:101708002368009001932A4B1B6853431B0D6B43BE
:10171800039302AB2168DA1C8B681800304033420F
:101728003BD0C023DB009E4204D1019B1B7BDBB274
:10173800137013787B1CEFD0FFF798F9009BC01A41
:10174800A8422CD3E02123685A688A435A6082222F
:101758006168520091420CD18021A26809028A4234
:1017680003D08021C9008A4203D140211A688A43E4
:101778001A608021A26A89018A4206D119680D4837
:101788000140196019680A431A60230001225D3379
:101798001A70002303205C34237005B0F0BD039B4E
:1017A800002B00D02B00039A1D00013A0392B0E7EA
:1017B80000000020FFDFFFFFF8B582231700426812
:1017C80004000E005B009A420DD180228368120249
:1017D800934203D08022D200934204D14021226850
:1017E80013688B4313603A0031002000FFF71CFF99
:1017F800051E05D02023226E03251343236616E019
:10180800822362685B009A4211D18022A368120287
:10181800934203D08022D200934208D1C0213B00DA
:1018280032002000C900FFF75BFF0028E2D1280042
:10183800F8BD70B513000D0016000A00C02149015B
:101848000400FFF74DFF002805D020230320226E57
:101858001343236670BD320029002000FFF7E4FE21
:101868000028F2D1C02133002A002000C900FFF768
:1018780037FF0028EED0E8E7F8B504000120002C77
:1018880067D0636A002B65D1822261685200914259
:1018980000D0E36100232500A3625D352B78DAB21E
:1018A800002B05D123005C3320001A70FEF71CFFC3
:1018B800022340222B702168E6680B689343E022DC
:1018C8000B60D2000023964248D9F022180012017A
:1018D800964200D0A3628222842763685200134094
:1018E800A2683F023A40022713432269A5693A4099
:1018F80013430122676917403B438027BF002F40ED
:101908003B43E769373217403B43276A4832174061
:1019180080223B43A76A920117403B4310270822C5
:101928000B60636A2D0C3B40676B17403B43F02705
:101938003F013E403343042635402B4303434B606D
:10194800CB69084803400020CB61012320665D3441
:101958002370F8BD0023236163619BE78020400169
:10196800B6E7C046FFF7FFFFF0B585B00093030068
:101978005C3316001A7804000D000227012A00D1F2
:1019880082E001221A70FFF771F8230001905D339D
:101998001A78D7B2012A00D0A6E0002D71D0002E07
:1019A8006FD002321A700023A21D23662364A56338
:1019B800A687E68702329387D3878022A1682365AA
:1019C800E36412022368914208D140211A688A43CD
:1019D8001A6080221968D2010A431A6040221968E5
:1019E800114202D119680A431A60E021E06862686E
:1019F800C90088424BD9002A01D0012E07D12A8874
:101A08000235DA60E38FA563013B9BB2E3870225C9
:101A1800E38F002B19D12000019A0099FFF709FFE5
:101A280000285ED1A368002B06D103932368DA68E7
:101A380003929B680393039B226E002A21D1230003
:101A480001215D33170019701BE0226893682B424F
:101A580009D0A36B19880233D160A363E38F013BDC
:101A68009BB2E387D4E7FFF701F8019BC01A009BFC
:101A78009842CDD30133CBD02300012203275D3315
:101A88001A7000235C342370380005B0F0BD002ABA
:101A980001D0012E08D12A781A73A36B0133A363EE
:101AA800E38F013B9BB2E3870225E38F002BB2D083
:101AB80023689A682A420AD0A26B12781A73A36B19
:101AC8000133A363E38F013B9BB2E387EDE7FEF7A6
:101AD800CDFF019BC01A009B9842E6D30133E4D0A6
:101AE800CAE7202323669DE70227CAE7F7B51E0049
:101AF80003005C3317001A7804000D000220012A45
:101B08001BD001221A70FEF7B1FF230001905D334C
:101B18001B786168DAB2012B09D0822302205B00AE
:101B2800994207D1A368002B04D1042A02D1002DC1
:101B380004D1012000235C342370FEBD002FF8D0AF
:101B4800002EF6D023005D331A78042A01D005222E
:101B58001A7022000023083223662764D687A21D44
:101B6800D687E022E068E3642365A5632368E687F7
:101B7800A687D200904235D95A68604F3A405A60D9
:101B880040221F68174202D11F683A431A60E022B8
:101B9800D200904261D9002901D0012E07D12A88AC
:101BA8000235DA60E38FA563013B9BB2E387012529
:101BB80002272E00E38F002B19D123000833DB8F77
:101BC800002B14D12000019A0899FFF732FE002853
:101BD80000D08FE0236E002BABD1230001225D33B0
:101BE8001A70A7E780225F6852013A43C7E7206866
:101BF80083683B420ED0E38F002B0BD0012D08D118
:101C0800A36B1A880233C260A363E38F013B9BB2C4
:101C1800E387002583681900314033420ED0220043
:101C28000832D38F002B09D00D00C068236C1880B0
:101C380002332364D38F013B9BB2D387FEF716FF91
:101C4800019BC01A089B9842B4D30133B2D0230039
:101C580001225D3303201A706CE7002901D0012EA0
:101C680008D12A781A73A36B0133A363E38F013B6E
:101C78009BB2E387012502272E0032E023689A6889
:101C88003A420FD0E28F002A0CD0012D09D1A26B65
:101C980012781A73A36B0133A363E38F013B9BB2E2
:101CA800E387002523689A681100314032420FD03B
:101CB80022000832D08F00280AD00D001B7B206C30
:101CC8000370236C01332364D38F013B9BB2D3870A
:101CD800FEF7CCFE019BC01A089B984201D3013342
:101CE800B5D1E38F002BC9D123000833DB8F002B3C
:101CF800C4D167E72023012023666BE7FFEFFFFFCE
:101D0800F0B5060087B0049103935D36337804007C
:101D18001700DDB2012B00D0AAE004334268FF337C
:101D28009A420ED18368002B0BD104333370039B86
:101D38000A0000933B00FFF7D9FE0500280007B012
:101D4800F0BD23005C331A78012A00D192E0012209
:101D58001A70FEF78BFE049B0590002B77D0002F9E
:101D680075D0042333700023049A23662264A21DCD
:101D7800D7870232D787E022E168A363A387E38786
:101D8800E3642365D200236891422FD95A683A4800
:101D980002405A608022A0681202904207D1402077
:101DA8001A6882431A601A68344802401A6040224E
:101DB8001868104202D1186802431A60E02327000D
:101DC800DB000837994225D9FB8F002B25D001214C
:101DD80023689A680A423ED0DA68236C1A80023374
:101DE8002364FB8F013B9BB2FB87EDE78022586899
:101DF80052010243CDE7012123689A680A421AD0AA
:101E08001B7B226C1370236C5B182364FB8F013BD4
:101E18009BB2FB87FB8F002BEDD12000059A03991D
:101E2800FFF7CAFC002820D1236E002B0FD1012216
:101E38001D0032700BE0FEF719FE059BC01A039BCC
:101E48009842E7D30133E5D00123032533700023FB
:101E58005C34237072E7FEF709FE059BC01A039BEA
:101E68009842B1D30133AFD0EEE720232366DBE7F6
:101E78000225ECE7022561E7FFEFFFFFFFBFFFFF49
:101E880001000300012010B53D310C78E2B2844214
:101E980015D1001808701B680A498B4202D00A49FC
:101EA8008B420DD19A6809490A40062A06D007399B
:101EB8008A4203D0012219680A431A60002010BD23
:101EC8001968F9E7002C01400004004007000100F0
:101ED8001C4A10B50368904202D01B4CA04208D19E
:101EE8007024A3434C68234390420BD0164CA04265
:101EF80008D0164CA04205D0154CA04202D0154C73
:101F0800A04203D1144C1C40CB6823438024A34334
:101F18004C69234303608B68C3620B6883629042F9
:101F280005D00B4B984202D00A4B984201D10B695D
:101F38000363012242610369134202D00369934398
:101F4800036110BD002C0140000400400020004047
:101F58000044014000480140FFFCFFFF70B5040049
:101F68000120002C23D025003D352B78DAB2002B38
:101F780005D123003C3320001A70FEF7E3FB02234F
:101F88002B702068211DFFF7A3FF220001230020EA
:101F98004832137047340A3A137053709370D370F1
:101FA800137153719371D371137223702B7070BDB9
:101FB80030B5EFF31084012282F31088C025016840
:101FC8000B68AB430B6084F31088EFF3108182F346
:101FD80010880268044C93682340936081F310884A
:101FE80020238830036030BDFFFF7FFF30B5EFF35B
:101FF8001084012282F310880168134D0B682B406E
:102008000B6084F31088EFF3108182F31088026864
:102018000E4C93682340936081F31088C36E012BA4
:102028000AD1EFF3108183F3108810240268136833
:10203800A343136081F31088030020228C331A60B5
:102048000023C366436730BDDFFEFFFFFEFFFFEFDF
:1020580030B5EFF31084012282F3108880250168DF
:102068000B68AB430B6084F31088EFF3108182F3A5
:1020780010884023026810680343136081F31088B6
:1020880030BD030088331B6810B5212B06D1020030
:1020980056321388002B02D1FFF7DAFF10BD036D0B
:1020A80001681C7801338C6203651388013B9BB27D
:1020B8001380F3E7030088331B6810B5212B06D182
:1020C800010056310B88002B02D1FFF7C1FF10BD6C
:1020D800026D046813880232DB05DB0DA36202651A
:1020E8000B88013B9BB20B80F1E7000003008833AB
:1020F8001B6870B5212B21D10300010080246A33AD
:102108001B885631002B19D00A88002A17D1EFF303
:102118001084013282F310880168114D8B682B40BE
:102128008B6084F31088EFF3108182F310884023CA
:10213800026810680343136081F3108870BD056856
:10214800EA69224208D0026D16780132AE62026551
:102158000A88013A92B20A80013B9BB2D2E7C04694
:10216800FFFF7FFF030088331B6870B5212B21D147
:102178000300010080246A331B885631002B19D0D4
:102188000A88002A17D1EFF31084013282F31088ED
:102198000168124D8B682B408B6084F31088EFF335
:1021A800108182F31088402302681068034313608B
:1021B80081F3108870BD0668F26922420AD0056D65
:1021C8002A880235D205D20DB26205650A88013A1D
:1021D80092B20A80013B9BB2D0E7C046FFFF7FFF67
:1021E80030B5050088352C6803000220202C37D133
:1021F8000138002934D0002A32D080209C68400160
:10220800844205D11869002802D10130014227D142
:102218001965190054310A804A801A000021903249
:102228001160212280212A608022586E920549017E
:10223800904216D1144A8C4203D11969002900D161
:10224800124A9A67EFF31081012282F310881A6804
:10225800802390681B040343936081F31088002057
:1022680030BD0B4A8C4203D11969002900D1094AB3
:102278009A67EFF31081012282F310881A6880238D
:10228800106803431360E8E7F52000086D21000893
:102298008B200008BD200008F7B50500883513001D
:1022A8002A6804000220202A04D1002901D0002B2A
:1022B80001D10120FEBD8022A0685201904204D1C4
:1022C8002269002A01D1CA07F3D422002600543219
:1022D8002165002713805380212290363760E06FF4
:1022E8002A6022680192B84211D0114A8763C262FB
:1022F800104A0263104A4263019A2832FEF73EFCF4
:10230800B84204D010233360DB182B60D1E7402299
:1023180023681A62EFF31081012383F3108822687F
:102328007F3390680343936081F310880020C1E7EE
:10233800A7240008F92400080925000870B504003E
:10234800EFF31080012383F31088C02521680A6801
:10235800AA430A6080F31088EFF3108083F3108893
:1023680021681D4D8A682A408A6080F31088802180
:10237800226892680A421CD0EFF3108083F3108819
:10238800226893688B43936080F31088E06F00287D
:102398000FD000238363FEF739FC002809D0E06FD3
:1023A800FEF76EFC202804D11023903423601D38DA
:1023B80070BD2300002256331A808023626E9B056D
:1023C8009A4204D11023226891690B439361202318
:1023D800883400202360EBE7FFFF7FFF70B504001F
:1023E800EFF31080012282F310882168294D0B68D1
:1023F8002B400B6080F31088EFF3108182F3108874
:102408002268254893680340936081F31088E36E3F
:10241800012B0AD1EFF3108183F310881020226872
:1024280013688343136081F31088402123689B68F5
:102438000B421ED0EFF31080012383F31088250090
:1024480004CD93688B43936080F31088E86F00286D
:102458000FD000238363FEF7D9FB002809D0E86F6B
:10246800FEF70EFC202804D11023903423601D3879
:1024780070BD230000200F225E33188023681A6283
:102488009969073A0A439A61230020228C331A601B
:10249800E066EDE7DFFEFFFFFEFFFFEF704703009A
:1024A8001B6870B51A6820231100806A19401A4207
:1024B8001AD1030056331980EFF31084012282F3F6
:1024C8001088802501688B68AB438B6084F3108883
:1024D800EFF3108182F310884023026810680343E9
:1024E800136081F3108870BDFFF7D8FFFBE77047D2
:1024F80010B5806AFFF7FBFF10BD70477047704743
:1025080070B5846A230088331A685D6823689B68FD
:102518001B0608D5212A06D12300002256332000A5
:102528001A80FFF745FD23689B685B0608D5222DB6
:1025380006D1230000225E3320001A80FFF756FDE3
:10254800220010239032116820000B431360FFF71C
:10255800D6FF70BD704700000100F8B503008C314C
:102568000C6860331A880368222C57D15B6A846D23
:10257800134002002370836D5E3201338365138834
:10258800013B9BB2138013889CB2002B42D1EFF31E
:102598001086013383F310880568234F2A683A4070
:1025A8002A6086F31088EFF3108683F31088056895
:1025B800AA689A43AA6086F3108820220A600268F3
:1025C80004675268446712020AD5EFF3108183F357
:1025D80010880268154C13682340136081F3108833
:1025E800C36E012B17D10022C266EFF3108483F368
:1025F800108801680F330A689A430A6084F31088C8
:102608000268D169194200D0136203005C3319884B
:10261800FFF7A0FFF8BDFFF770FFFBE708229969F5
:102628000A439A61F6E7C046DFFEFFFFFFFFFFFBA4
:102638000200F8B503008C32116860331C88036807
:10264800222956D1596A836D21401980010002332D
:1026580083655E310B88013B9BB20B800B889CB273
:10266800002B42D1EFF31086013383F310880568FD
:10267800224F29683940296086F31088EFF31086C5
:1026880083F310880568A9689943A96086F31088C0
:1026980020211160026804675268446712020AD553
:1026A800EFF3108183F310880268154C13682340F8
:1026B800136081F31088C36E012B17D10022C26604
:1026C800EFF3108483F3108801680F330A689A4384
:1026D8000A6084F310880268D169194200D0136235
:1026E80003005C331988FFF735FFF8BDFFF705FFD6
:1026F800FBE7082299690A439A61F6E7DFFEFFFFC4
:10270800FFFFFFFB0300F0B560331B8885B0029321
:1027180003680400DD691A6803929A68019202004E
:102728008C321268222A00D0C2E0030068331B886A
:10273800002B02D020231D4225D123005E331B88A5
:102748009AB2002B1DD0230068331B88934218D9F6
:10275800EFF31080012282F310882168574D8B68AF
:102768002B408B6080F31088554B6367EFF3108123
:1027780082F310882023226810680343136081F3D2
:10278800108805B0F0BD2600236802995B6AA26D27
:102798000B401370A36D5E360133A365338822683E
:1027A800013B9BB233800723D5691D422FD0063BDE
:1027B8001D4208D00399C90505D52100136290313F
:1027C800086803430B6002231D4209D00199C90719
:1027D80006D52100136290310868DB1803430B60AB
:1027E80004231D4209D00199C90706D513622200A6
:1027F80090321168023B0B431360270090373B6807
:10280800002B04D02000FFF77AFE00233B603388BA
:1028180099B2002B00D08DE7EFF31086013383F3D4
:1028280010882068274F02683A40026086F31088B3
:10283800EFF3108683F310882068234F82683A40AC
:10284800826086F31088220020208C321060226873
:1028580021675268616712020AD5EFF3108183F38A
:1028680010882268194813680340136081F31088A0
:10287800E36E012B18D10022E266EFF3108083F398
:10288800108821680F330A689A430A6080F3108819
:102898002268D169194200D0136223005C332000FA
:1028A8001988FFF757FE45E72000FFF726FE41E7A6
:1028B800082299690A439A6163E7C046FFFFFFEF60
:1028C80061250008FFFEFFFFFEFFFFEFFFFFFFFB94
:1028D8000300F0B560331B8885B0029303680400D9
:1028E800DD691A6803929A68019202008C321268B4
:1028F800222A00D0C0E0030068331B88002B02D0D6
:1029080020231D4225D123005E331B889AB2002B59
:102918001DD0230068331B88934218D9EFF3108029
:10292800012282F310882168564D8B682B408B60FA
:1029380080F31088544B6367EFF3108182F310889B
:102948002023226810680343136081F3108805B0C0
:10295800F0BD260023680298596AA26D01401180D3
:102968000232A2655E363288013A92B2328007227C
:10297800DD6915422FD0063A154208D00399C905DA
:1029880005D521001A629031086802430A600222C4
:10299800154209D00199C90706D521001A6290315C
:1029A8000868921802430A600422154209D0019966
:1029B800C90706D51A6222000223903211680B4318
:1029C8001360270090373B68002B04D02000FFF7E6
:1029D80096FD00233B60338899B2002B00D08FE727
:1029E800EFF31086013383F310882068274F0268BD
:1029F8003A40026086F31088EFF3108683F310885C
:102A08002068234F82683A40826086F3108822004B
:102A180020208C3210602268216752686167120298
:102A28000AD5EFF3108183F31088226819481368D8
:102A38000340136081F31088E36E012B18D1002244
:102A4800E266EFF3108083F3108821680F330A6879
:102A58009A430A6080F310882268D169194200D02D
:102A6800136223005C3320001988FFF773FD47E7E2
:102A78002000FFF742FD43E7082299690A439A615B
:102A880065E7C046FFFFFFEF39260008FFFEFFFF9E
:102A9800FEFFFFEFFFFFFFFB0123806A10B503670E
:102AA800C36E012B06D103005C3319884908FFF770
:102AB80051FD10BDFFF722FDFBE7000003001B6876
:102AC80020221B6870B51900806A1140134234D166
:102AD80003005E331980EFF31085012383F3108818
:102AE80004681D4E21683140216085F31088EFF39A
:102AF800108583F310880468A1689943A16085F361
:102B08001088EFF3108483F31088402501688B68E0
:102B1800AB438B6084F3108803008C331A60C36E58
:102B2800012B0AD1EFF3108183F310881024026877
:102B38001368A343136081F3108800230367C36EEF
:102B4800012B05D103005C331988FFF703FD70BD25
:102B5800FFF7D3FCFBE7C046FFFEFFFF70B504009C
:102B68002569A168036829436569C269294318680A
:102B7800494D114328400143196059684748256A5F
:102B88000140E06801435960A16998682943444DB0
:102B9800284001430F209960D96A8143606A014344
:102BA800D96240498B4215D103213F4B5B6D0B40E5
:102BB800013B022B60D83D49C85C80231B029A4226
:102BC8002FD1082856D8FDF79FFA5B550E550B559F
:102BD80055550F0036495B18591E8B411801ECE713
:102BE800FEF772FB4EE0334A616A334B490010002E
:102BF800C95AFDF79DFA656840006B08C01829009E
:102C0800FDF796FA02002D4B103A9A4232D80F235C
:102C1800020000079A4393B2400F22680343D3602F
:102C280032E0082826D8FDF76FFA1A2505251F2552
:102C3800252522001F48626A1F4B5200D15AFDF712
:102C480077FA65686B08C0182900FDF771FA020069
:102C58001A4B103A9A420DD82368D86014E0FEF750
:102C680025FC002810D0E6E7FEF72EFBF9E78020C8
:102C78000002E0E7012008E080231B029A42EED11F
:102C8800FEF714FC021EAFD100200D4BA3660023F3
:102C98006367A36770BDC046F369FFCFFFCFFFFF2F
:102CA800FFF4FF110038014000100240D86100080D
:102CB80000BCFFBF0024F400DC610008EFFF000047
:102CC80001000100836A30B51A0706D50168284C4F
:102CD8004A682240846B22434A60DA0706D50168B5
:102CE800244C4A682240C46A22434A609A0706D59F
:102CF8000168214C4A682240046B22434A605A0703
:102D080006D501681D4C4A682240446B22434A603C
:102D1800DA0606D501681A4C8A682240C46B224339
:102D28008A609A0606D50168164C8A682240046CA7
:102D380022438A605A0610D50168134D4A68446CCC
:102D48002A4022434A6080225203944205D14A68AD
:102D58000E4C2240846C22434A601B0606D502684A
:102D68000B4953680B40C16C0B43536030BDC046E0
:102D7800FF7FFFFFFFFFFDFFFFFFFEFFFFFFFBFFE2
:102D8800FFEFFFFFFFDFFFFFFFFFEFFFFFFF9FFFEB
:102D9800FFFFF7FFF7B504000D0017000093226846
:102DA800D3692B405B1B59424B41BB4201D00020E9
:102DB80026E0089B0133F3D0FDF758FE009BC01AAC
:102DC800089B98422DD8002B2BD023681A685207ED
:102DD800E5D52A004021403A8A43E0D0DA6908263E
:102DE80011003140019132420BD020001E62FFF7E2
:102DF800FDF8230090331E600023012084342370E3
:102E0800FEBD8022D96912011142C8D01A62200081
:102E1800FFF7ECF82300202290331A60019B8434DA
:102E280023700320ECE7F0B51700020087B0883262
:102E38000593136804000D000220202B39D10138B6
:102E4800002936D0002F34D08023A1685B01994235
:102E580004D12369002B01D105422AD12300002681
:102E680090331E6021231360FDF700FE23005433C6
:102E78001F80023303931F808023A26804905B01A4
:102E88009A4204D12369B34201D12E001D002300C8
:102E980056331B889AB2002B0DD1059B2000009356
:102EA8004021049BFFF776FF202388342360002805
:102EB8000ED107B0F0BD059B0022009380212000B1
:102EC800049BFFF767FF002804D020238834236081
:102ED8000320EEE72268002D0BD133880236DB058C
:102EE800DB0D9362039B039A1B88013B9BB2138003
:102EF800CDE72B7801359362F4E70000F0B51500B3
:102F0800020087B08C320593136804000F0002207A
:102F1800202B61D1013800295ED0002D5CD08023A0
:102F2800A1685B01994204D12369002B01D10742B2
:102F380052D1230000219033196022231360E166E7
:102F4800FDF794FD23005C331D80023303931D803D
:102F58008023A26804905B019A4212D12369002B56
:102F680024D0FF263300002522006032138023007E
:102F78005E331B8898B2002B20D18C342033236019
:102F88002AE0002A05D12569FF23002D14D07F23CC
:102F98000AE0002380211E001D0049058A42E3D172
:102FA80025699D4207D03F331E00DCE7134E3D00E4
:102FB80033000027D8E77F231E00D5E7059B0022B2
:102FC800009320212000049BFFF7E4FE002805D091
:102FD800202303208C34236007B0F0BD23685B6A8C
:102FE8003340002F07D12B800235039B039A1B889F
:102FF800013B9BB2BAE73B700137F6E7FF010000DF
:10300800030073B50026040090331E60FDF72EFD03
:10301800236805001B681B071FD58021284B320039
:103028000093890303002000FFF7B4FEB04214D0D8
:10303800EFF31081012383F310888020226813683E
:103048008343136081F310882300202288331A6099
:10305800032000238434237076BD260023688C3631
:103068001B685B0723D58021154B002200932000A5
:103078002B00C903FFF78EFE002818D0EFF310804D
:10308800012282F3108821680E4D0B682B400B60DB
:1030980080F31088EFF3108082F3108821688B6822
:1030A80093438B6080F3108820233360D0E723009C
:1030B8002022002088331A603260E0662067C8E763
:1030C800FFFFFF01DFFEFFFF70B5041E01D10120E5
:1030D80070BD050088352B68002B04D102008432AE
:1030E8001370FDF745FB2423012122682B60136828
:1030F8008B431360A36A002B02D02000FFF7E2FD88
:103108002000FFF72BFD0128E1D0236807495A6802
:1031180020000A402A215A609A688A439A6001224C
:1031280019680A431A60FFF76BFFD1E7FFB7FFFF83
:1031380070B5041E01D1012070BD050088352B68CB
:10314800002B04D1020084321370FDF711FB2423F5
:10315800012122682B6013688B431360A36A002B3C
:1031680002D02000FFF7AEFD2000FFF7F7FC012892
:10317800E1D0236809495A6820000A4022215A6090
:103188009A688A439A60082299680A439A600122D9
:1031980019680A431A60FFF733FFCDE7FFB7FFFF4F
:1031A80003005C3370B5816580241A805A8000233F
:1031B800816843676401A1424ED10369591E8B415E
:1031C800FF215B428B433C495B18010060310B8057
:1031D80003000021903319602231043B1960EFF39A
:1031E8001084012383F3108801688D682B438B605A
:1031F80084F3108880258021466E84680369AD05B4
:103208004901AE423AD1050068352D88954235D836
:103218002A4A8C4202D1002B00D1294A4267002B4E
:103228000BD0EFF31081012383F310880268FF337A
:1032380014682343136081F31088EFF3108101238E
:1032480083F31088802302685B05906803439360CA
:1032580081F31088002070BD002905D101697F2302
:103268000029B2D18033B0E780246405A142ACD1F3
:1032780001693F230029A8D14033A6E7114A8C42AF
:1032880002D1002B00D1104A42670122002B0AD03C
:10329800EFF3108182F31088902302685B001068B6
:1032A80003431360D4E7EFF3108182F310880268B8
:1032B80020231068F4E7C046FF0100000D2700082E
:1032C800D9280008612500083926000803008C3039
:1032D80070B504680220202C25D10138002922D09D
:1032E800002A20D080209C684001844205D11869BA
:1032F800002802D10130014215D10020D866186893
:10330800406800020CD5EFF31085012080F3108887
:1033180080201C68C00426683043206085F310882C
:103328001800FFF73DFF70BDF8B513000200060056
:1033380005005C3281650F0013802221002290363F
:103348008C3532602960011D0400C86F904213D08B
:103358001D498263C1621D493A0001631C494163EA
:1033680021682431FDF70AFC002805D0102301202C
:103378003360DB182B60F8BD2369002B0BD0EFF30B
:103388001081012383F310882268FF3310680343F8
:10339800136081F31088EFF31080012383F3108802
:1033A80021688A681A438A6080F31088EFF31081D5
:1033B80083F3108822683F3390680343936081F356
:1033C80010880020D7E7C046C52A0008A12A0008AF
:1033D8000925000803008C3070B504680220202CF1
:1033E80025D10138002922D0002A20D080209C68CD
:1033F8004001844205D11869002802D101300142F8
:1034080015D10020D8661868406800020CD5EFF383
:103418001085012080F3108880201C68C00426686D
:103428003043206085F310881800FFF77DFF70BDDA
:10343800F7B50700436E04006A37002B04D101205A
:10344800388068342080F7BD03680B4E9A689B6803
:103458000A4D5B0FF05CE95CC0000192FCF7F2FEDC
:10346800019B38801B015B0FF05CE95CC000FCF736
:10347800E9FE80B2E5E7C046FC610008F461000897
:1034880070B504008434227803000220012A11D088
:103498001D002422012688352A601A6811681068E0
:1034A800B043106004480140002058662023116092
:1034B8002B60207070BDC046FFFFFFDFF8B5050028
:1034C80084350B0029780222012915D00600012134
:1034D8000468883622323260276822688A4322606C
:1034E800A168C900C9081943A160FFF7A1FF2023FB
:1034F8000022276033602A701000F8BDF8B5050077
:1035080084350A0029780223012915D006000121F3
:103518000468883622333360276823688B43236026
:10352800A168064B19401143A160FFF781FF2023D2
:103538002760336000232B701800F8BDFFFFFFF1F0
:103548000368C26800201A607047000080B582B026
:1035580000AF7860034A7B681A607B681800BD4634
:1035680002B080BD4462000880B582B000AF7860C8
:103578007B681800FFF7EAFF7B680421180002F057
:103588002BF87B681800BD4602B080BD80B582B0BC
:1035980000AF786039603A687B681100180000F065
:1035A8004BF87B68180000F019F87B681800BD46D6
:1035B80002B080BD80B582B000AF78607B68002221
:1035C8001A607B6800225A607B68180000F018F8BF
:1035D8007B681800BD4602B080BD000080B582B08F
:1035E80000AF78607B681A68044B1B68D2187B6848
:1035F8005A60C046BD4602B080BDC0468402002065
:1036080080B584B000AF78607B681B68FB6080235E
:10361800DA057B681100180000F00EF87B681800C6
:10362800FFF7DCFFFA687B681100180000F004F867
:10363800C046BD4604B080BD80B582B000AF78609A
:1036480039607B683A681A60C046BD4602B080BDE2
:1036580080B582B000AF7860034A7B681A607B68E7
:103668001800BD4602B080BD4462000880B582B033
:1036780000AF78607B685A68044B1B689A429B418C
:103688005B42DBB21800BD4602B080BD8402002058
:1036980080B582B000AF7860C046BD4602B080BD3C
:1036A80080B582B000AF7860054A7B681A607B6895
:1036B8001800FFF74BFF7B681800BD4602B080BDBD
:1036C8000C62000880B582B000AF78607B68180093
:1036D800FFF7E6FF7B680421180001F07DFF7B6897
:1036E8001800BD4602B080BD80B582B000AF7860DA
:1036F800C046BD4602B080BD80B582B000AF7860DC
:10370800C046BD4602B080BD80B582B000AF7860CB
:1037180039607B681800BD4602B080BD80B584B0B2
:1037280000AFF860B9607A60C046BD4604B080BD9D
:1037380090B583B000AF78600C0010001900FB1C36
:10374800221C1A70BB1C021C1A707B1C0A1C1A70E3
:103758007B68FA1C12781A707B68BA1C12785A7047
:103768007B687A1C12789A707B680022DA707B6812
:103778001800BD4603B090BD80B582B000AF786038
:1037880039607B68012B09D13B68064A934205D111
:103798000548FF23FF22FF21FFF7CAFFC046BD46A9
:1037A80002B080BDFFFF00008802002080B500AF96
:1037B800034B19000120FFF7DFFFBD4680BDC0465F
:1037C800FFFF000080B582B000AF78607B6818000A
:1037D800FFF73EFF034A7B681A607B681800BD4606
:1037E80002B080BD0C62000880B582B000AF78607E
:1037F800034A7B681A607B681800BD4602B080BD2A
:103808003462000880B582B000AF78607B68180029
:10381800FFF7EAFF7B681021180001F0DDFE7B68E6
:103828001800BD4602B080BD80B582B000AF786098
:1038380039607B68012B09D13B68064A934205D160
:103848000548FF23FF22FF21FFF772FFC046BD4650
:1038580002B080BDFFFF00008C02002080B500AFE1
:10386800034B19000120FFF7DFFFBD4680BDC046AE
:10387800FFFF000080B582B000AF7860084A7B681F
:103888001A607B6800225A607B680022DA607B68D5
:10389800180000F007F87B681800BD4602B080BD2C
:1038A8003462000880B582B000AF78607B68DA685F
:1038B8007B689A60C046BD4602B080BD80B582B0C4
:1038C80000AF78607B689B685A687B689A60C046DE
:1038D800BD4602B080BD000080B582B000AF786000
:1038E800034B7A681A60C046BD4602B080BDC04628
:1038F80090020020B0B58AB000AFF860B9607A6075
:103908003B604C4B1B68002B00D18EE0FB68032BFF
:103918002DD0FB68032B34DCFB68022B1DD0FB6821
:10392800022B2EDCFB68002B03D0FB68012B0AD08E
:1039380027E01423FB18404A116819609188998080
:1039480092799A7127E01423FB183C4A1168196090
:103958009188998092799A711DE01423FB18384A4E
:10396800116819609188998092799A7113E01423EB
:10397800FB18344A116819609188998092799A7174
:1039880009E01423FB18304A11681960918899805E
:1039980092799A71C046274B1B685B681422BA1843
:1039A8001100180001F0C6FF224B1B685B687A689B
:1039B8001100180001F02AFF1E4B1B685C682000EC
:1039C800FCF79AFB0300E218204B100019000523AE
:1039D8001A0001F0B7FF174B1B685B683A681100C3
:1039E800180001F013FF134B1B685C682000FCF7FC
:1039F80083FB0300E218164B1000190002231A007B
:103A080001F0A0FF0B4B1D680A4B1B681B680C33A9
:103A18001C68084B1B685B681800FCF76DFB03000B
:103A2800642219002800A04700E0C046BD460AB03D
:103A3800B0BDC046900200207060000878600008A1
:103A4800806000088860000890600008986000089E
:103A5800A060000880B582B000AF7860054B1B6895
:103A680014337A681100180000F006F8C046BD4605
:103A780002B080BD9402002080B584B000AF7860A9
:103A880039607B68180000F03CF87B68180000F08B
:103A980044F87B68DB68002B13D1082001F0A0FDF7
:103AA80003001A007B68DA607B68DB683A681A6092
:103AB8007B68DB6800225A607B68DA687B689A60FA
:103AC80015E0082001F08CFD0300FB60FB683A68F4
:103AD8001A60FB6800225A607B68180000F01DF825
:103AE8007B689B68FA685A607B68FA689A607B68AA
:103AF8005B685A1C7B685A607B681800BD4604B036
:103B080080BD80B582B000AF78607B68DA687B687A
:103B18009A60C046BD4602B080BD80B582B000AF95
:103B2800786003E07B68180000F00DF87B689B68FC
:103B3800002B04D07B689B685B68002BF2D1C046E1
:103B4800BD4602B080BD80B582B000AF78607B68AA
:103B58009B685A687B689A60C046BD4602B080BDC3
:103B680080B582B000AF78600A4A7B681A607B68CB
:103B78001433180000F0BCF87B6804331800FFF712
:103B880033FE7B681800FFF7E1FC7B681800BD4630
:103B980002B080BD5C62000880B582B000AF78607A
:103BA8007B681800FFF7DCFF7B682421180001F010
:103BB80013FD7B681800BD4602B080BD80B582B099
:103BC80000AF78607B681800FFF742FD084A7B6801
:103BD8001A607B6804331800FFF74CFE7B681433C7
:103BE800180000F0A5F87B681800BD4602B080BD3B
:103BF8005C62000880B582B000AF786039603B68CD
:103C08001B681A003B681B681B6808331B68100098
:103C1800984701231800BD4602B080BD80B582B028
:103C280000AF78607B6819000020FFF7E3FF03000E
:103C38001800BD4602B080BD80B582B000AF786084
:103C4800024B1800BD4602B080BDC046253C0008A6
:103C580080B582B000AF786039603B681A683B680D
:103C68001B681B6808331B6810009847012318005D
:103C7800BD4602B080BD80B582B000AF78607B6879
:103C880019000020FFF7E4FF03001800BD4602B04A
:103C980080BD000080B582B000AF7860024B18008C
:103CA800BD4602B080BDC0467F3C000890B585B0D7
:103CB80000AF78607B681C1D0823FB181800FFF70D
:103CC800BBFF03001900200000F04AF87B6814339A
:103CD8001C000C23FB181800FFF7DCFF0300190079
:103CE800200000F060F8C046BD4605B090BD000059
:103CF80080B582B000AF7860034A7B681A607B6841
:103D08001800BD4602B080BD7462000880B582B05C
:103D180000AF78607B681800FFF7EAFF7B68102126
:103D2800180001F059FC7B681800BD4602B080BD40
:103D380080B582B000AF7860084A7B681A607B68FB
:103D480000225A607B680022DA607B681800FFF75F
:103D5800D8FE7B681800BD4602B080BD74620008BA
:103D680080B582B000AF786039607B681800FFF7D3
:103D780099FD0FE07B689A683B681000984703003C
:103D88001A0001235340DBB2002B08D17B681800CE
:103D9800FFF794FD7B689B68002BEBD100E0C046E1
:103DA800BD4602B080BD80B582B000AF7860396092
:103DB8007B681800FFF7A5FE0FE07B689A683B68F0
:103DC8001000984703001A0001235340DBB2002B70
:103DD80008D17B681800FFF7B6FE7B689B68002B4C
:103DE800EBD100E0C046BD4602B080BD80B584B0CE
:103DF80000AFF8607A600B23FB180A1C1A700AE0FF
:103E0800FB680B22BA1812781A70FB680133FB6042
:103E18007B68013B7B607B68002BF1D1C046C046C4
:103E2800BD4604B080BD80B584B000AFF860B9600D
:103E38007A60FB68BA685A60FB687A689A60FB68BF
:103E48005B68002B08D1FB689B68180001F0DAFB5F
:103E580003001A00FB685A60C046BD4604B080BD26
:103E680090B585B000AFF860B9607A60BB68002B88
:103E780002D1FB689B68BB60FB681B6818331C6831
:103E8800FB6859687B68BA68F868A047030018009F
:103E9800BD4605B090BD90B583B000AF786039607D
:103EA8003B68002B02D17B689B683B607B681B6882
:103EB8001C331C687B6859683A687B681800A047FF
:103EC80003001800BD4603B090BD90B583B000AFA5
:103ED800786039603B68002B02D17B689B683B6047
:103EE8007B681B6820331C687B6859683A687B6864
:103EF8001800A04703001800BD4603B090BD90B558
:103F080085B000AFF860B9607A60BB68002B02D159
:103F1800FB689B68BB60FB681B6834331C68FB68E4
:103F280059687B68BA68F868A04703001800BD465E
:103F380005B090BD90B583B000AF786039603B683C
:103F4800002B02D17B689B683B607B681B68383319
:103F58001C687B6859683A687B681800A0470300AA
:103F68001800BD4603B090BD80B582B000AF786040
:103F78007B681B683C331A687B6859687B68180043
:103F8800904703001800BD4602B080BD80B582B0DE
:103F980000AF7860034A7B681A607B681800BD46EA
:103FA80002B080BD8462000880B584B000AFF860BC
:103FB800B9607A603B60FB68BA68DA60FB683A68A7
:103FC80079681800FFF72FFFC046BD4604B080BDD2
:103FD80080B582B000AF786000231800BD4602B0FB
:103FE80080BD80B584B000AFF860B9607A603B608E
:103FF800FB68D8687B689AB23B68B968FDF7B4FC7F
:1040080003001800BD4604B080BD80B584B000AF81
:10401800F860B9607A6000231800BD4604B080BD1E
:1040280080B584B000AFF860B9607A6000231800EA
:10403800BD4604B080BD80B582B000AF7860002373
:104048001800BD4602B080BD80B582B000AF786070
:1040580000231800BD4602B080BD80B584B000AF13
:10406800F860B9607A603B60FB68D8687B689AB290
:104078003B68B968FDF744FE03001800BD4604B06C
:1040880080BD80B584B000AFF860B9607A60002365
:104098001800BD4604B080BD80B582B000AF78601E
:1040A800396000231800BD4602B080BD80B584B0D9
:1040B80000AFF860B9607A603B60FB68BA68DA60A4
:1040C800FB683A6879681800FFF7ADFEC046BD4640
:1040D80004B080BD80B584B000AFF860B9607A6084
:1040E8003B60FB68D8687B689AB23B68B968FEF7A2
:1040F8009AFE03001800BD4604B080BD80B584B0A8
:1041080000AFF860B9607A60FB68DB687A6892B2E1
:10411800B9681800FEF764F803001800BD4604B03B
:1041280080BD80B584B000AFF860B9607A60FB6884
:104138001B6808331B68FA6810009847FB68DB683F
:104148007A6892B2B9681800FEF7A6F8030018005A
:10415800BD4604B080BD80B584B000AFF860B960DA
:104168007A603B60FB68D8687B689AB23B68B9683C
:10417800FEF7C4FE03001800BD4604B080BD80B53C
:1041880084B000AFF860B9607A60FB68DB687A6871
:1041980092B2B9681800FFF799F803001800BD46F5
:1041A80004B080BD80B582B000AF786039607B68AC
:1041B800D8687B689B689AB23B681900FFF70AF9D0
:1041C80003001800BD4602B080BD80B582B000AFC4
:1041D80078607B68DB685C229B5A19007B68DB6827
:1041E80080229B581B685B68CB1A1800BD4602B03A
:1041F80080BD80B582B000AF78607B68DB6818004E
:10420800FEF7ECF803001800BD4602B080BD80B58B
:1042180082B000AF78607B68DB681800FEF78EF824
:1042280003001800BD4602B080BD000080B582B012
:1042380000AF7860054A7B681A607B681800FFF752
:104248002FFA7B681800BD4602B080BD9063000855
:1042580080B582B000AF78607B681800FFF7E6FF92
:104268007B681021180001F0B7F97B681800BD467B
:1042780002B080BD80B582B000AF78607B6818005E
:1042880000F0CEF8084A7B681A607B6800221A6141
:104298007B6800225A617B6800221A737B681800C9
:1042A800BD4602B080BDC0465C63000880B584B0DE
:1042B80000AFF860B9607A601A00FB1C1A70FB68DE
:1042C800BA681A61FB687A685A61FB68FA1C127846
:1042D8001A73FA681823FB181B781376FB68180002
:1042E800BD4604B080BD80B582B000AF78607B6801
:1042F8001A697B685B699BB219001000FCF774FDB2
:1043080003005A1E9341DBB2002B09D07B681B7B4C
:1043180001225340DBB21A007B689B68534305E0D7
:104328007B681B7B1A007B689B6853431800BD465B
:1043380002B080BD80B582B000AF78607B681B6931
:104348007A6852699A62C046BD4602B080BD80B59F
:1043580082B000AF78607B681B697A6852699A619D
:10436800C046BD4602B080BD90B583B000AF78604E
:104378007B681B7E012B02D0022B0BD027E07B68C9
:104388001B6820331B687A681000984702007B6816
:104398005A601DE07B685C687B689A681300DB00E4
:1043A8009B180A211800FBF74DFF03009C4207DD0C
:1043B8007B681B6828331B687A681000984706E0FA
:1043C8007B681B6824331B687A6810009847C046CE
:1043D800C046BD4603B090BD80B582B000AF7860DE
:1043E800054A7B681A607B681800FFF71FFF7B6827
:1043F8001800BD4602B080BD5C63000880B582B07D
:1044080000AF78607B681800FFF7E6FF7B681C2127
:10441800180001F0E1F87B681800BD4602B080BDC5
:1044280080B582B000AF78607B681800FFF7CAF9E2
:10443800064A7B681A607B6800225A607B68012202
:104448009A607B681800BD4602B080BD9063000882
:1044580080B582B000AF78607B685B681800BD46A5
:1044680002B080BD80B582B000AF78607B681B7BEE
:10447800002B0AD07B6800225A607B681B682433B3
:104488001B687A68100098470AE07B689A687B681E
:104498005A607B681B6828331B687A681000984745
:1044A800C046BD4602B080BD80B582B000AF78601E
:1044B8007B681B7B002B0BD07B689A687B685A60F3
:1044C8007B681B6828331B687A681000984709E0E6
:1044D8007B6800225A607B681B6824331B687A68F3
:1044E80010009847C046BD4602B080BD80B584B074
:1044F80000AFF860B9607A600CE0BB681A78FB68B6
:104508001A70FB680133FB60BB680133BB607B68D2
:10451800013B7B607B68002BEFD1C046C046BD469F
:1045280004B080BD80B584B000AFF860B9607A602F
:1045380010E0FB681A78BB681B789A4201D0012307
:104548000CE0FB680133FB60BB680133BB607B6830
:10455800013B7B607B68002BEBD100231800BD4634
:1045680004B080BD80B582B000AF7860396008E0E3
:104578007B681B78002B01D000230BE07B6801339C
:104588007B603B685A1E3A605A1E9341DBB2002B8F
:10459800EED101231800BD4602B080BD80B582B0BF
:1045A80000AF7860054A7B681A607B681800FEF7E0
:1045B800CDFF7B681800BD4602B080BDE4630008EB
:1045C80080B582B000AF78607B681800FFF7E6FF1F
:1045D8007B682421180000F0FFFF7B681800BD46A7
:1045E80002B080BD80B584B000AFF860B9607A6071
:1045F800FB6800229A62FB68243304220021180019
:10460800FFF7F4FBFB68BA681A63FB687A68DA623A
:10461800C046BD4604B080BD80B582B000AF7860AA
:104628007B681B6B1B68002B23D07B681A6B7B682D
:1046380012681A627B685B6A002B05D07B681A6A6D
:104648007B685B6A9A420BD17B687A68126A5A6205
:104658007B6801221A777B681B6B00221A6008E0CE
:104668007B6800225A627B6800229A627B6800227B
:104678001A77C046BD4602B080BD000080B582B042
:1046880000AF7860054A7B681A607B681800FFF7FE
:1046980085FF7B681800BD4602B080BDC463000872
:1046A80080B582B000AF78607B681800FFF7E6FF3E
:1046B8007B683421180000F08FFF7B681800BD4626
:1046C80002B080BD80B582B000AF78607B681B7F88
:1046D8001800BD4602B080BD80B582B000AF7860DA
:1046E80039607B681B7F002B0CD07B682033190056
:1046F8003B6804221800FFF7F9FE7B6800221A774E
:10470800012300E000231800BD4602B080BD80B53B
:1047180082B000AF78607B68203304211800FFF76F
:1047280021FF03005A425341DBB2002B3DD07B6886
:104738000022DA607B68203318007B680433042287
:104748001900FFF7EFFE03005A1E9341DBB2002B5E
:1047580010D07B6810331800FEF740FF7B680122F9
:104768001A777B68181D7B68203304221900FFF72D
:10477800BDFE39E07B6810331800FEF777FF031E93
:1047880032D07B6810331800FEF73AFF7B6820337D
:10479800042200211800FFF729FB7B680433042258
:1047A80000211800FFF722FB1EE07B68DB68591C1C
:1047B8007A68D16005229A429B415B42DBB2002BAA
:1047C80012D07B6810331800FEF71AFF7B6820337D
:1047D800042200211800FFF709FB7B680433042238
:1047E80000211800FFF702FBC046BD4602B080BD9D
:1047F80080B584B000AFF860B9607A603B60FB6850
:10480800BA685A63FB687A681A63FB683A68DA62BE
:10481800FB68180000F0D6FAC046BD4604B080BD5B
:1048280090B583B000AF786008001100FB1C021C33
:104838001A70BB1C0A1C1A70FB1C1B785B00DBB2CD
:104848007E221340DAB2FB1C1A707B681A6B7B68F5
:104858001B6B1B6814331B68100098477B68586BE8
:104868007B685B6B1B6818331C68F91C6423012286
:10487800A0477B68586B7B685B6B1B6818331C68A8
:10488800B91C64230122A0477B681A6B7B681B6BE9
:104898001B6810331B68100098470120FCF7ECF8E0
:1048A800C046BD4603B090BDB0B584B000AF7860D7
:1048B8000A00FB1C1A70FB1C1B785B005BB27E2293
:1048C80013405BB28022524213435BB2DAB2FB1C44
:1048D8001A707B681A6B7B681B6B1B6814331B6828
:1048E800100098477B68586B7B685B6B1B681833B4
:1048F8001C68FA235B00F91C0122A0477B68586BEF
:104908007B685B6B1B6834331C680F25791964233B
:104918000122A0477B681A6B7B681B6B1B681033EE
:104928001B68100098477B191B781800BD4604B017
:10493800B0BD80B582B000AF786008001100FB1CE4
:10494800021C1A70BB1C0A1C1A70FB1C1A787B68A4
:1049580011001800FFF7A8FF03001A00BB1C1B7802
:104968001343DAB2FB1C19787B681800FFF758FF6D
:10497800C046BD4602B080BD80B582B000AF786049
:1049880008001100FB1C021C1A70BB1C0A1C1A70C0
:10499800FB1C1A787B6811001800FFF785FF0300DD
:1049A8005BB2BA1C127852B2D24352B213405BB215
:1049B800DAB2FB1C19787B681800FFF731FFC04694
:1049C800BD4602B080BDB0B584B000AF78600F2599
:1049D8007C197B6814211800FFF766FF0300237019
:1049E8007B191B780322134005D17B68032214210D
:1049F8001800FFF79EFFC046BD4604B0B0BD80B5A5
:104A080082B000AF78607B680F2201211800FFF7A1
:104A180007FFC046BD4602B080BDF0B589B002AF01
:104A2800F8607A600B243B190A1C1A7014257B194C
:104A380000221A80FB6807220D211800FFF7F0FEFC
:104A48007B683A1912781A701726BC197A68F868C0
:104A58007B1901937B68009301230C2100F015F862
:104A680003002370BB191B78002B03D17B191B880B
:104A7800102B03D01723FB1802221A701723FB18D8
:104A88001B781800BD4607B0F0BDB0B586B000AFC2
:104A9800F86008007A6019000B243B19021C1A7090
:104AA8000A23FB180A1C1A701723FB1803221A7012
:104AB80016217B1800221A7015203B1800221A7044
:104AC8003B191B780C2B08D00E2B0FD17B18122208
:104AD8001A703B1810221A7009E01623FB18772267
:104AE8001A701523FB1830221A7000E0C0461623EE
:104AF800FB181B78802252421343DAB2FB6802216A
:104B08001800FFF78DFEFB68802204211800FFF7CC
:104B180033FFFB6880220A211800FFF70AFFFB68B1
:104B2800002201211800FFF77BFE1223FB18002248
:104B38001A800FE012243B191B887A68D3181A7858
:104B4800FB6809211800FFF76BFE3B191A883B190F
:104B580001321A800A23FB181B789BB21222BA185A
:104B680012889A42E6D30B243B191A78FB68012174
:104B78001800FFF755FE3B191B780C2B05D1FB6875
:104B880080220D211800FFF7D4FE1223FB18FA2209
:104B9800D2001A8014257C19FB6804211800FFF73D
:104BA80083FE0300237012217B181A887B18013AB0
:104BB8001A807B181B88002B0DD07B191B780122CB
:104BC800134008D17B191522BA181B7812781340A4
:104BD800DBB2002BDED0FB6880220D211800FFF726
:104BE800CBFE1223FB181B88002B00D18AE0FB6840
:104BF80006211800FFF758FE03001A001B23134074
:104C08005A425341DBB2002B00D177E017217B18C1
:104C180000221A701423FB181622BA181B7812786F
:104C28001340DBB21A000123134002D07B18012283
:104C38001A700B23FB181B780C2B63D114257C19D5
:104C4800FB680A211800FFF72FFE03002370FB689A
:104C58000C211800FFF728FE0300190011203B184B
:104C680007220A401A7001007B181B78002B0DD010
:104C78007B191B78013B9BB2DB009AB27B181B782F
:104C88009BB2D3189AB2FB6A1A8007E01423FB1868
:104C98001B789BB2DB009AB2FB6A1A801422BB18FD
:104CA8001B78002B02D1BB1801221A701422BB18E2
:104CB8001B78102B02D9BB1810221A701223FB186C
:104CC80000221A8010E012257B191B88BA6AD418B2
:104CD800FB6809211800FFF7E7FD030023707B1923
:104CE8001A887B1901321A801423FB181B789BB28F
:104CF8001222BA1812889A42E5D303E01723FB1848
:104D080002221A701723FB181B781800BD4606B03C
:104D1800B0BDB0B586B002AF786039600D23FB181E
:104D280000221A707B6800220D211800FFF778FD19
:104D38003B6893221A703B68013320221A700F25B2
:104D48007C193A6878680A23FB1801933B6800933A
:104D580002230C21FFF799FE030023707B191B78AF
:104D6800002B28D10E23FB1800221A7010E00E2009
:104D78003B181B783A68D31819780D22BB18BA1853
:104D880012784A401A703B181A783B1801321A7088
:104D98000E22BB181B78032BE9D9BB181B783A687D
:104DA800D3181B780D22BA1812789A4203D00F2311
:104DB800FB1802221A700F23FB181B781800BD4637
:104DC80004B0B0BD90B59DB000AF7860364A0C24F1
:104DD8003B191100180000F0F1FC3B19334A344923
:104DE8000020FEF787FD7B681A6B7B681B6B1B68CE
:104DF80014331B68100098477B68DA6A7B68DB6AA3
:104E08001B6814331B68100098470520FBF734FE15
:104E18007B68DA6A7B68DB6A1B6810331B681000E2
:104E280098477B681A6B7B681B6B1B6810331B6881
:104E3800100098470520FBF71FFE7B681800FFF756
:104E4800DEFD7B688D222A211800FFF7E9FC7B68CC
:104E58003E222B211800FFF7E3FC7B681E222D2140
:104E68001800FFF7DDFC7B6800222C211800FFF7F3
:104E7800D7FC7B68702226211800FFF7D1FC7B68DD
:104E8800402215211800FFF7CBFC7B683D22112139
:104E98001800FFF7C5FC7B681800FFF794FDC046B3
:104EA800BD461DB090BDC046A4600008B4600008AF
:104EB800BC600008F0B5A3B000AF786074257B191A
:104EC800102200211800FEF791FF8726BC197323D2
:104ED800FA187B6826211800FFF79FFD030023704E
:104EE800BB191B78002B37D10120FBF7C5FD7A19B8
:104EF8007B6811001800FFF70CFF03001A007B689D
:104F08009A627B689B6A022B0CD1294A0C243B19B4
:104F18001100180000F052FC3B19264A26490020CF
:104F2800FEF7E8FC7B689B6A002B39D174203B189C
:104F3800D9787B68202299543B1899787B6821227C
:104F480099543B1859787B68222299543B18197850
:104F58007B682322995423E0184B1B68591C174A75
:104F680011600122111C96229200934201DC002359
:104F7800191CCBB2002B13D0104B00221A60104A18
:104F88000C243B191100180000F018FC3B19094AC1
:104F980009490020FEF7AEFC7B681800FFF712FFF6
:104FA8007B681800FFF7B3FBC046BD4623B0F0BDD1
:104FB800F460000810610008BC6000089802002036
:104FC8001861000880B582B000AF7860054A7B6838
:104FD8001A607B681800FFF7E1FA7B681800BD4685
:104FE80002B080BD0464000880B582B000AF78606C
:104FF8007B681800FFF7E6FF7B683821180000F08F
:10500800EBFA7B681800BD4602B080BD80B582B05F
:1050180000AF78607B6800221A617B681800BD4683
:1050280002B080BDB0B500AF042000F0D9FA03008B
:1050380000221A600F4A1360382000F0D1FA0300EA
:105048001C00200038231A00002100F0D7FB2000A4
:10505800FFF7DCFF084B1C60074B1B68180000F0CB
:105068004FF8054B1B68180000F0BCF9C046BD4658
:10507800B0BDC0469C020020A002002080B500AF51
:10508800074B1800FEF75CFA064B1A68054B1B68BD
:105098001B6808331B6810009847C046BD4680BD92
:1050A800780000209402002080B582B000AF7860BC
:1050B80039607B683A681100180000F057FA044A12
:1050C8007B681A607B681800BD4602B080BDC04688
:1050D8000464000880B582B000AF786039607B68EE
:1050E8003A681100180000F041FA044A7B681A6017
:1050F8007B681800BD4602B080BDC046C463000886
:1051080090B59DB000AF78607B68180000F046F855
:105118007B689B691800FEF7DFFB134A0C243B19D8
:105128001100180000F04AFB3B19104A10490020F2
:10513800FEF7E0FB242000F053FA03001C002000D7
:10514800FEF73CFD0B4B1C607B68180000F060F814
:105158007B68180000F094F87B68180000F024F9C8
:10516800C046BD461DB090BD386100084C610008BE
:10517800546100089402002080B582B000AF7860C6
:105188007B681800FEF702FF034A7B681A607B6899
:105198001800BD4602B080BD1463000890B583B006
:1051A80000AF7860102000F01BFA03001C002000FC
:1051B80010231A00002100F021FB2000FFF7DCFF7C
:1051C8007B689C617B6898690F4932230022FEF74F
:1051D8006DFF102000F004FA03001C0020001023CB
:1051E8001A00002100F00AFB2000FFF7C5FF7B68CA
:1051F800DC617B68D869054932230022FEF756FF37
:10520800C046BD4603B090BD8C00002020010020A0
:1052180090B583B000AF7860342000F0E1F9030066
:105228001C00C8212000FFF755FF7B68DC627B6803
:10523800DB6A094902221800FFF7D4F97B68DB6AA8
:105248001A007B68DB6A1B680C331B6810009847E0
:10525800C046BD4603B090BD6402002080B582B050
:1052680000AF78607B681800FEF790FE034A7B6801
:105278001A607B681800BD4602B080BDCC62000889
:1052880090B585B002AF78601C2000F0A9F9030042
:105298001C002000FEF7EEFF7B685C627B68586AA2
:1052A800A023D9050023009300231022FEF7FEFF58
:1052B8001C2000F095F903001C002000FEF7DAFF1F
:1052C8007B689C627B68986A80235A01A023D90571
:1052D800002300930023FEF7E9FF7B685B6A1A004E
:1052E8007B685B6A1B6810331B68100098477B68F3
:1052F8009B6A1A007B689B6A1B6814331B68100042
:105308009847C820FBF7B8FB7B689B6A1A007B6844
:105318009B6A1B6810331B6810009847102000F028
:105328005FF903001C00200010231A00002100F080
:1053380065FA2000FFF792FF7B681C627B68186A99
:10534800184910230022FEF72FFE382000F048F9F4
:1053580003001C00FA239B0019002000FFF7A4FE9D
:105368007B685C637B68586B7B68196A7B685A6AE0
:105378007B689B6AFFF73CFA0A20FBF77DFB7B689A
:105388005A6B7B681A637B681B6B1A007B681B6B04
:105398001B680C331B6810009847C046BD4603B015
:1053A80090BDC0460002002090B585B002AF78607D
:1053B8001C2000F015F903001C002000FEF75AFF1E
:1053C8007B685C617B6858698023DA0104490123A2
:1053D80000930023FEF76AFFC046BD4603B090BDA8
:1053E8000008005080B582B000AF7860204B1800EC
:1053F800FCF746FDC820FBF73FFB6420FBF73CFBAE
:105408007B680022DA601B4B1A687B689A60FFF79A
:1054180035FE7B68180000F04DF87B68180000F036
:105428002DF80A20FBF728FB134B1800FEF788F825
:105438007B689A680F4B1B68D31A5A1E9341DBB2DC
:10544800002B0ED00B4B1A687B689B68D21A7B68BE
:105458005A607B68DA687B681A607B680022DA60C9
:10546800D1E77B68DB685A1C7B68DA60CBE7C0460B
:10547800B4010020840200207800002090B585B097
:1054880000AF78607B68DB6A18007B68DB6A1B68A2
:1054980014331B680C243A1911009847031E05D0D1
:1054A8003A197B685221180000F037F8C046BD460B
:1054B80005B090BD90B585B000AF78607B681A6B79
:1054C8007B681B6B1B6810331B6810009847031E12
:1054D8001FD07B681A6B7B681B6B1B6814331B68B7
:1054E8000C243919100098473A197B684321180091
:1054F80000F013F8FFF7C2FD7B681A6B7B681B6B23
:105508001B6814331B680C21791810009847031E78
:10551800F0D1C046BD4605B090BD80B584B000AF9F
:10552800F8607A600B203B180A1C1A70FB68DB696C
:105538005B683A1812781A70FB68DB695B6801339C
:10554800796804221800FEF7D1FFFB68DB691800B0
:10555800FB68DB691B680C331B68FA229200052183
:105568009847C046BD4604B080BD000080B582B0F3
:1055780000AF786039607B681800FEF769F8154A53
:105588007B681A607B6810331800FEF713F87B6895
:105598003A689A607B6800221A777B682033042275
:1055A80000211800FEF722FC7B6804330422002146
:1055B8001800FEF71BFC7B6810331A007B689B6899
:1055C80019001000FDF7E2FF7B681800BD4602B025
:1055D80080BDC046E463000810B500F017F810BDA0
:1055E80010B5041E00D10134200000F021F8002875
:1055F80000D010BD00F00EF8002801D100F010F81E
:105608008047F1E710B5FFF7EBFF10BD10B500F0CC
:1056180019F810BD014B18687047C046A402002055
:10562800062010B500F028F90120FBF785F90000E5
:1056380010B5034B0100186800F030F810BDC046E3
:105648000C00002010B5034B0100186800F084F925
:1056580010BDC0460C00002070B50F4E0D0031681B
:105668000400002902D100F027F930602900200049
:1056780000F022F9431C03D101256D42280070BDBA
:105688000323C51C9D43A842F8D0291A200000F026
:1056980013F90130F2D1EFE7A8020020F7B5032291
:1056A800CB1C9343083305001F000C2B34D20C2766
:1056B800B94233D8280000F071F8374E33681C001F
:1056C800002C2FD139002800FFF7C6FF0400431C27
:1056D8005FD134680094009B002B4AD1002C52D033
:1056E80023682800E3180099019300F0E5F8019B6E
:1056F800834248D123682800FF1A3900FFF7ACFF1E
:10570800013040D02368DB19236033685A68002AC7
:1057180033D1009B336019E0002BC9DA0C232B60CE
:105728000020FEBD2168C91B20D40B290AD9E21923
:105738002760A34204D1326063681160536005E0BA
:105748005A60F9E76268A3420ED13260280000F07F
:105758002DF8200007220B30231D9043C21A9842CF
:10576800DFD01B1AA350DCE75A60EFE72300646818
:10577800A6E7009C63680093ADE71A005B68A34244
:10578800FBD10023DAE70C2328002B6000F00EF889
:10579800C6E70760DAE7C046AC02002010B5024849
:1057A80000F0C6F810BDC046EC03002010B5024852
:1057B80000F0BFF810BDC046EC0300200EB400B5E1
:1057C8000B499CB01DAB02900690079104910948C3
:1057D800094904CB0591006802A9019300F066F914
:1057E8000022029B1A701CB008BC03B01847C046C0
:1057F800FFFFFF7F0C0000200802FFFF0300821854
:10580800934200D1704719700133F9E7020010B5CF
:10581800137814000132002BFAD1CA5CE254013328
:10582800002AFAD110BD70B504000D001F2904D953
:10583800162303600120404270BDC36B002B04D0C7
:105848008A009B181A68002A08D1200000F030F856
:105858002A000100200000F019F8EDE7012A09D01C
:10586800511C03D1162303600120E5E7002128001D
:10587800196090470020DFE710B5034B0100186856
:10588800FFF7D1FF10BDC0460C000020002370B503
:10589800064D0400080011002B60FBF745F8431C77
:1058A80003D12B68002B00D0236070BDE8030020D3
:1058B80010B5FBF737F810BD002370B5064D04008E
:1058C80008002B60FBF73EF8431C03D12B68002B24
:1058D80000D0236070BDC046E8030020014B186863
:1058E8007047C0460C00002070B500260C4C0D4DCA
:1058F800641BA410A64209D1002600F0A9FB0A4C9B
:105908000A4D641BA410A64205D170BDB300EB5824
:1059180098470136EEE7B300EB5898470136F2E7AF
:1059280050640008506400085C6400085064000873
:105938007047704703000A7801311A700133002A52
:10594800F9D17047002310B59A4200D110BDCC5C44
:10595800C4540133F8E7000070B505000C1E10D0E0
:10596800043C2368002B00DAE4182800FFF716FF30
:105978001D4A1368002B05D1636014602800FFF7E7
:1059880015FF70BDA34208D9206821188B42F3D1B6
:1059980019685B6809182160EEE71A005B68002B3C
:1059A80001D0A342F9D911685018A0420BD1206840
:1059B8000918501811608342E0D118685B684118D3
:1059C80011605360DAE7A04202D90C232B60D5E7B7
:1059D800206821188B4203D119685B680918216077
:1059E80063605460CAE7C046AC020020F0B58E6818
:1059F80085B01F000C000B6802900392BE4230D89D
:105A08000C21625E9021C9000A4228D00320216936
:105A18005B1A0193636943430198DD0FED187B1C02
:105A28001B186D10AB4200D91D00520528D529005E
:105A38000298FFF733FE061E2CD0019A2169FFF762
:105A480081FFA289184B1A4080231343A381019B2D
:105A58002661F61826603E006561ED1AA560BE4213
:105A680000D93E0032000399206800F09BFA00201C
:105A7800A3689B1BA36023689B19236005B0F0BD36
:105A88002A00029800F0ACFA061EE0D121690298BB
:105A9800FFF762FF0C230120029A40421360A2899B
:105AA80034331343A381E9E77FFBFFFFF0B5A1B0CF
:105AB80003901D008B890F0016001B0611D50B697A
:105AC800002B0ED14021FFF7E9FD3860386100282E
